:020000040800F2
:10000000E83D002021020008E11C0008F719000863
:100010000D1C00086B040008ED240008000000001F
:10002000000000000000000000000000890100083E
:100030006D04000800000000CD010008451F000805
:100040003B0200083B0200083B0200083B0200089C
:100050003B0200083B0200083B0200083B0200088C
:100060003B0200083B0200083B0200083B0200087C
:100070003B0200083B0200083B0200083B0200086C
:100080003B0200083B0200083B0200083B0200085C
:100090003B0200083B0200083B0200083B0200084C
:1000A0003B020008B11F00083B0200083B020008A9
:1000B000BD1F0008C91F00083B0200083B020008E2
:1000C0003B0200083B0200083B0200083B0200081C
:1000D0003B020008E12400083B0200083B02000844
:1000E0003B0200083B0200083B02000800F002F857
:1000F00000F03AF80AA090E8000C82448344AAF188
:100100000107DA4501D100F02FF8AFF2090EBAE885
:100110000F0013F0010F18BFFB1A43F0010318473B
:100120001C4100003C410000103A24BF78C878C14F
:10013000FAD8520724BF30C830C144BF04680C60ED
:10014000704700000023002400250026103A28BF35
:1001500078C1FBD8520728BF30C148BF0B60704739
:100160001FB51FBD10B510BD00F045F91146FFF7D2
:10017000F7FF02F0CDF900F063F903B4FFF7F2FFE7
:1001800003BC00F06BF90000224B19680868B0E866
:10019000F00F80F30988BFF36F8F4FF0000080F3FA
:1001A00011884EF00D0E70470000000006480068F0
:1001B000006880F3088862B661B6BFF34F8FBFF363
:1001C0006F8F00DF00BF00BF08ED00E0EFF3098094
:1001D000BFF36F8F0F4B1A6820E9F00F106008B55E
:1001E0004FF0500080F31188BFF34F8FBFF36F8F34
:1001F00003F08CF84FF0000080F31188BDE8084050
:1002000019680868B0E8F00F80F30988BFF36F8FB2
:10021000704700BF2C000020EFF3058070470000FE
:100220000948804709480047FEE7FEE7FEE7FEE78A
:10023000FEE7FEE7FEE7FEE7FEE7FEE704480549C6
:10024000054A064B70470000AF1F0008ED0000088C
:10025000E8370020E83D0020E8390020E839002098
:10026000032A40F2308010F0030C00F0158011F8E2
:10027000013BBCF1020F624498BF11F801CB00F8BA
:10028000013B38BF11F8013BA2F1040298BF00F80E
:1002900001CB38BF00F8013B11F0030300F0578099
:1002A000083AC0F0088051F8043B083A51F804CBF2
:1002B000A0E80810F5E7121D5CBF51F8043B40F8B8
:1002C000043BAFF30080D20724BF11F8013B11F8C3
:1002D00001CB48BF11F8012B24BF00F8013B00F807
:1002E00001CB48BF00F8012B704702F0FF0343EA3F
:1002F000032242EA024200F05EB84FF0000200B56D
:10030000134694469646203922BFA0E80C50A0E838
:100310000C50B1F12001BFF4F7AF090728BFA0E8E6
:100320000C5048BF0CC05DF804EB890028BF40F8B2
:10033000042B08BF704748BF20F8022B11F0804FF4
:1003400018BF00F8012B704770477047704710B511
:10035000203AC0F00B80B1E81850203AA0E81850BD
:10036000B1E81850A0E81850BFF4F5AF5FEA027C7E
:1003700024BFB1E81850A0E8185044BF18C918C0ED
:10038000BDE810405FEA827C24BF51F8043B40F88E
:10039000043B08BF7047D20728BF31F8023B48BF73
:1003A00011F8012B28BF20F8023B48BF00F8012BB1
:1003B00070474FF000020429C0F0128010F0030CC7
:1003C0003FF49DAFCCF1040CBCF1020F18BF00F854
:1003D000012BA8BF20F8022BA1EB0C01FFF78FBF68
:1003E0005FEAC17C24BF00F8012B00F8012B48BF55
:1003F00000F8012B7047754600F02CF8AE4605005A
:100400006946534620F00700854618B020B5FFF72F
:1004100015FFBDE820404FF000064FF000074FF0F9
:1004200000084FF0000B21F00701AC46ACE8C00912
:10043000ACE8C009ACE8C009ACE8C0098D4670471B
:1004400010B50446AFF300802046BDE81040FFF72A
:1004500094BE0000004870478837002001491820EA
:10046000ABBEFEE7260002007047FEE770470000C3
:1004700010B53C21044800F083FEBDE810403C214B
:10048000024800F07DBE0000DC0100209401002045
:1004900010B590F821100022022905D004218163B3
:1004A00080F82020012010BD01680B6823F00E03A6
:1004B0000B6001680B6823F001030B6090F840307B
:1004C000C46B012101FA03F3636080F8211080F806
:1004D0002020104610BD000010B590F82110002417
:1004E000022903D00421816301243DE001680A68E8
:1004F00022F00E020A6001680A6822F001020A6016
:100500001A4A0168914201D1012121E0174A1432AF
:10051000914201D110211BE0144A2832914201D1AD
:10052000891515E0114A3C32914201D189140FE03E
:100530000E4A5032914202D14FF4803108E00B4A0A
:100540006432914202D14FF4801101E04FF080718A
:10055000064A083A5160012180F82110002180F8F4
:100560002010416B01B18847204610BD08000240B1
:100570002DE9F84FDFF8B8910024A9F1040B2346C8
:100580000F2709F1040AABF1040EC9E00125A540CB
:100590002A40AA427DD1674ED1F804C0ACEB0608D0
:1005A000B44532D014DCBCF1030F3AD009DCBCF105
:1005B000000F2AD0BCF1010F1CD0BCF1020F31D1C9
:1005C0001DE0BCF1110F17D0BCF1120F2AD119E0B8
:1005D000B8F5881F19D006DCB8F5803F15D0B8F5FE
:1005E000801F1FD111E0B8F5001F0ED0B8F5041F11
:1005F00018D10AE0CB6815E0CB681B1D12E0CB6870
:1006000008330FE0CB680C330CE08B682BB1012B67
:100610004FF0080303D0456104E0042302E00561C4
:1006200000E00023FF2A01D8064601E000F104069D
:100630004FEA840501D9A5F12005D6F8008007FA14
:1006400005FC28EA0C0803FA05F548EA0508C6F88F
:1006500000804D68ED0062D5374DAE6946F0010669
:10066000AE61AD6924F0030605F001050095334D38
:1006700006EB050CDCF80850A607360F07FA06F85B
:1006800025EA0805DFF8B880404503D14FF000089F
:1006900017E044E0DFF8AC80404502D14FF001089C
:1006A0000FE0DFF8A480404502D14FF0020808E0D7
:1006B000DFF89880404502D14FF0030801E04FF089
:1006C000040808FA06F848EA0508CCF808804D68DE
:1006D000D9F80060ED024D4601D5164300E096437F
:1006E0002E604D68DAF80060AD02554601D516431C
:1006F00000E096432E604D68DBF80060AD035D4678
:1007000001D5164300E096432E604D68DEF8006088
:10071000ED03754601D5164300E096432E60641C38
:100720000D682A46E5407FF431AFBDE8F88F000040
:1007300008040140000011100010024000000140B8
:1007400000080140000C014000100140001401406D
:10075000C26821EA02030A4043EA0241016170478C
:100760000AB1016170470904FBE700000148806895
:10077000704700001C000020074810B5016841F0D8
:1007800010010160032000F0A1F80F2000F006F82E
:1007900000F04AF8002010BD0020024030B50546A8
:1007A0001C4887B0816941F400618161806906A9B4
:1007B00000F40060009001A800F030F900F05EF94C
:1007C0001549164AB0FBF1F11548491E0260416017
:1007D00040F2E7320021C0E903218160816100F02D
:1007E00049FB040012D10E4800F08EFB04000DD12D
:1007F000192000F03DF8102D07D2002229461920BB
:1008000000F044F80748056000E0012407B02046E6
:1008100030BD00000010024040420F00002C01409B
:100820006C020020200000200F4808B5816941F0CB
:1008300001018161816901F001010091C16941F00B
:100840008051C161C069002200F0805000900F21EA
:10085000901E00F01BF80548416821F0E06141F06E
:100860000071416008BD000000100240000001401E
:10087000002809DB00F01F0201219140400980009F
:1008800000F1E020C0F8001170470000F0B40E4BFA
:100890001B680C46C3F30223C3F10705042D00D9DE
:1008A0000425191D072901D2002300E0DB1E0126C3
:1008B00006FA05F1491E214099409E40761E1640D9
:1008C0003143F0BC01F013BE0CED00E0064900F02E
:1008D000070208684FF6FF03184040EA0220034A67
:1008E00010430860704700000CED00E00000FA05BE
:1008F0002DE9F0470F46050061D0434E306800F007
:100900000700B84209D2306820F007003843306051
:10091000306800F00700B84251D128683B4C81078D
:1009200012D5400703D5606840F4E0606060287825
:10093000000703D5606840F4605060606068A96893
:1009400020F0F000084360602878C00728D068686D
:10095000012810D02168022810D0890700292EDA3A
:10096000616821F0030101436160FFF7FFFE8046EB
:1009700041F288390DE021688903EFE78901EDE74D
:10098000FFF7F4FEA0EB0801494502D90320BDE8BA
:10099000F0876068696800F00C00B0EB810FEFD160
:1009A000306800F00700B8420BD9306820F007002B
:1009B00038433060306800F00700B84201D00120B1
:1009C000E5E72878400705D56068E96820F4E0602D
:1009D000084360602878000706D56068296920F41C
:1009E000605040EAC100606000F058F86168084A51
:1009F000C1F30311515CC84006490860064800680D
:100A0000FFF7CCFE0020C2E70020024000100240A9
:100A10000A42000828000020200000200F22026067
:100A20000C4A536803F003034360536803F0F00378
:100A30008360536803F4E063C36052684FF4E0637B
:100A400003EAD20202610448006800F0070008606F
:100A50007047000000100240002002400448054991
:100A600000684968044AC1F30221515CC8407047DC
:100A700028000020001002401A42000804480549DE
:100A800000684968044AC1F3C221515CC8407047FC
:100A900028000020001002401A4200080E4A516847
:100AA0000E4801F00C03042B11D0082B0FD10C4879
:100AB000C1F38343C903C05C0AD55168084AC1F336
:100AC0004041921E515C054A5043B0FBF1F0704723
:100AD00004494843704700000010024000127A00A9
:100AE000FA41000800093D002DE9F84F040070D0DC
:100AF0002078C04DC00749D06868C0F38100012844
:100B000007D06868C0F38100022809D16868C00373
:100B100006D52868800339D560680028E7D035E01D
:100B20006068B0F5803F0BD010B1B0F5A02F11D0A8
:100B3000286820F480302860286820F4802002E0B3
:100B4000286840F480302860606890B1FFF70EFE9E
:100B500006460AE0286840F480202860F0E700BFDD
:100B6000FFF704FE801B642873D828688003F7D53C
:100B70000CE0FFF7FBFD064605E000BFFFF7F6FDC2
:100B8000801B6428F0D828688003F7D420789A4E18
:100B900080074FF001094FF0000839D5686810F060
:100BA0000C0F07D06868C0F38100022809D168687B
:100BB000C00306D42868800714D52069012808D10D
:100BC00010E02069B0B1C6F80090FFF7CFFD0746EE
:100BD00005E00AE1FFF7CAFDC01B0228C4D8286857
:100BE0008007F7D52868616920F0F80040EAC10065
:100BF00028600DE0C6F80080FFF7B8FD074604E066
:100C0000FFF7B4FDC01B022823D828688007F7D45B
:100C1000207800072CD57948A169D9B1C0F8009097
:100C2000FFF7A4FD074604E0FFF7A0FDC01B022864
:100C30000FD8686A8007F7D571484FF4FA510068F9
:100C4000B0FBF1F0009000BF0098411E0091FAD275
:100C50000EE080E0C0F80080FFF788FD074604E062
:100C6000FFF784FDC01B022875D8686A8007F7D497
:100C70002078400760D5E8690027C00008D4E869FB
:100C800040F08050E861E869012700F08050009052
:100C90005C480168C90513D40168834641F480713A
:100CA0000160FFF763FD824606E000BFFFF75EFDCF
:100CB000A0EB0A0064284ED8DBF80000C005F5D58B
:100CC000E06801280AD008B1052813D0286A20F06E
:100CD00001002862286A20F0040002E0286A40F03F
:100CE00001002862E06841F2883B98B1FFF73EFDC1
:100CF00082460BE0286A40F004002862EEE700BF5D
:100D0000FFF734FDA0EB0A0159455AD8286A80073D
:100D1000F6D50CE0FFF72AFD824605E0FFF726FD39
:100D2000A0EB0A0159454CD8286A8007F6D41FB1B8
:100D3000E86920F08050E861E06988B36968C1F330
:100D40008101022944D00228C6F8608004D0FFF750
:100D50000DFD044638E034E0FFF708FD074604E0E7
:100D6000FFF704FDC01B02282BD828688001F7D4A8
:100D7000206AB0F5803F05D16868A16820F4003092
:100D800008436860D4E908010843696821F47411D4
:100D900008436860C6F86090FFF7E8FC044606E088
:100DA00025E000BFFFF7E2FC001B022809D82868F5
:100DB0008001F7D51BE000BFFFF7D8FC001B02281D
:100DC00002D90320BDE8F88F28688001F4D40EE032
:100DD0000128F7D06868226A00F48031914204D17A
:100DE000616A00F47010884201D00120EAE7002017
:100DF000E8E7000000100240000042428004424246
:100E000028000020007000407047704770B590F8CF
:100E10003C20012A26D0012480F83C40022280F8A0
:100E20003D2003685A689D6822F070060A683243C4
:100E30005A600D4B02689A4208D0B2F1804F05D03B
:100E40000A4B9A4202D00A4B9A4204D1496825F0D3
:100E500080031943916080F83D40002180F83C10E8
:100E6000084670BD022070BD002C01400004004007
:100E70000008004010B5040003D094F83D0010B104
:100E800007E0012010BD002084F83C00204600F05F
:100E90001FF8022084F83D00211D206801F09AF817
:100EA000012084F8460084F83E0084F83F0084F86E
:100EB000400084F8410084F8420084F8430084F83C
:100EC000440084F8450084F83D00002010BD000077
:100ED00008B50068B0F1804F12D10A48C16941F0ED
:100EE0000101C161C069002200F0010000900521EC
:100EF0001C20FFF7CBFCBDE808401C20FFF7B8BC66
:100F000008BD00000010024090F83D10012901D0FA
:100F100001207047022180F83D100168CA6842F044
:100F20000102CA6000680B49884208D0B0F1804FC6
:100F300005D00949884202D00849884204D1816815
:100F400001F00701062903D0016841F001010160A9
:100F500000207047002C01400004004000080040C1
:100F600070B5044690F83C000025012817D00126F2
:100F700084F83C60022084F83D002068826822F0FA
:100F8000770222F47F4282600868502838D00DDC56
:100F900020284FD005DC90B3102811D14AE0022060
:100FA00070BD302846D040280AD13BE060282FD0C1
:100FB00070280DD0B0F5805F03D0B0F5005F12D07F
:100FC000012584F83D60002084F83C00284670BD6F
:100FD000CB68D1E90121206801F045F820688168DB
:100FE00041F0770109E0CB68D1E90121206801F0E7
:100FF0003AF82068816841F480418160E1E719E0B6
:10100000CA684968206801F0E3F85021206806E0CA
:10101000CA684968206801F0ECF86021206801F096
:101020002CF8CEE7CA684968206801F0D1F8402161
:101030002068F4E7226801461046F0E72DE9F04108
:101040000D46040003D094F83D0018B108E00120DB
:10105000BDE8F081002084F83C00204600F040F814
:10106000022084F83D002068816844F20702914321
:101070008160211D206800F0ADFF226890689169B1
:10108000166A2B68AF69034340F20330814341EA9B
:101090000721A868EF6908434FF6FC418843E968D7
:1010A00040EA0720014328692F6A000140EA07301F
:1010B000084369686D6926F0220646EA051529434A
:1010C00093602268906154F8460B0162012004F895
:1010D0001F09E0752076E0762077A0750020B7E73D
:1010E00000B585B0002100910191029103911F4B41
:1010F00002681F48C0219A421ED1C26942F0020212
:10110000C261C26902F002020492826942F00402E2
:1011100082618069009100F00400049069461548DE
:10112000FFF726FA002205211D20FFF7AFFB1D2047
:10113000FFF79EFB05B000BD0F4B9A42FAD1C26982
:1011400042F00402C261C26902F0040204928269A0
:1011500042F0080282618069009100F0080004906A
:1011600069460648FFF704FAE4E70000000400407F
:10117000001002400008014000080040000C01403F
:1011800070B590F83E60044690F83F5090F84230B9
:1011900090F84320022021B104290ED0012E1BD14A
:1011A00014E0012E18D1012B16D184F83E0084F8EA
:1011B000420001220021206820E0012D0CD1012AEB
:1011C0000AD184F83F0084F8430014E0012D03D1D4
:1011D000012B01D1012A01D0012070BD84F83E000D
:1011E00084F83F0084F8420084F843000122002183
:1011F000206800F02BFF01220421206800F026FF68
:101200002068016841F001010160002070BD704755
:101210002DE9F04104460068C66805694FF00007F3
:10122000A90713D5B10711D5F91E01610120207757
:10123000206880698007204602D0FFF7E8FF04E0BD
:1012400000F0A2F8204600F034F92777680716D599
:10125000700714D521686FF0040008610220207720
:101260002068806910F4407F204602D0FFF7CFFF4E
:1012700004E000F089F8204600F01BF927772807E2
:1012800015D5300713D521686FF0080008610420D8
:1012900020772068C0698007204602D0FFF7B7FF9B
:1012A00004E000F071F8204600F003F92777E80623
:1012B00016D5F00614D521686FF0100008610820DB
:1012C00020772068C06910F4407F204602D0FFF7E5
:1012D0009EFF04E000F058F8204600F0EAF8277777
:1012E000E80708D0F00706D021686FF00100086118
:1012F000204600F02DF9280608D5300606D52168CD
:101300006FF0800008612046FFF77EFD680608D573
:10131000700606D521686FF040000861204600F095
:1013200047F9A8060AD5B00608D521686FF0200055
:1013300008612046BDE8F041FFF767BDBDE8F081D8
:1013400000B585B0002100910191029103910068E0
:10135000B0F1804F11D10A48816941F004018161E7
:101360008069694600F00400049003200090022088
:10137000019003900348FFF7FBF805B000BD0000A3
:101380000010024000080140704770B5044690F814
:101390003C0000260D4601280FD0012084F83C00B7
:1013A0006AB1042A1DD0082A2FD00C2A3FD001266A
:1013B000002084F83C00304670BD022070BD2068DB
:1013C00000F064FE2068816941F0080181612068B5
:1013D000816921F004018161206881692A691143D2
:1013E00011E0206800F07AFE2068816941F4006114
:1013F00081612068816921F480618161206881694F
:101400002A6941EA02218161D2E7206800F092FE58
:101410002068C16941F00801C1612068C16921F0FB
:101420000401C1612068C1692A69114311E0206883
:1014300000F0ACFE2068C16941F40061C161206820
:10144000C16921F48061C1612068C1692A6941EAEA
:101450000221C161ACE710B5040003D094F83D004F
:1014600010B107E0012010BD002084F83C002046A8
:1014700000F01EF8022084F83D00211D206800F0D5
:10148000A9FD012084F8460084F83E0084F83F005E
:1014900084F8400084F8410084F8420084F8430056
:1014A00084F8440084F8450084F83D00002010BD15
:1014B0007047704710B50446022249B104290ED086
:1014C000082913D094F84100012816D0012010BD3E
:1014D00094F83E000128F9D184F83E200FE094F8FA
:1014E0003F000128F2D184F83F2008E094F8400042
:1014F0000128EBD184F8402001E084F8412001224A
:10150000206800F0A3FD0F492068884203D1426C97
:1015100042F4004242642068884208D0B0F1804F13
:1015200005D00949884202D00849884204D181681F
:1015300001F00701062903D0016841F001010160B3
:10154000002010BD002C01400004004000080040B5
:1015500070B50068B0F1804F25D100F0B3FC0446AF
:1015600000F0BAFC0646204602F062FC0E4D024630
:101570000E48296800F0C6FB0446304602F058FCCD
:1015800002460A4869682C3000F0BCFB054620463C
:1015900002F032FC00F03CFB284602F02DFCBDE8D6
:1015A000704000F057BB70BD08000020F400002020
:1015B0007047704770470000F8B501680446086836
:1015C000CA684B6910F00F0F4FF0000559D003F0B7
:1015D000010602F49077374365D0C10705D0D105E5
:1015E00003D5616C41F001016164410705D5D9075C
:1015F00003D0616C41F002016164810705D5D90710
:1016000003D0616C41F004016164010707D502F069
:101610002001314303D0616C41F008016164616CC9
:1016200000293AD0800604D5900602D5204600F065
:1016300046FE20684069616CC0F38010090700D441
:1016400060B3204600F014FE20684069400621D5B2
:101650002068143050E8001F21F0400140E80012DB
:10166000002AF5D1E06BA8B16D494163E06BFEF74C
:1016700033FF002811D0E06B416B01B0BDE8F040B2
:10168000084783060FD593060DD52046BDE8F840E0
:1016900000F015BE2046FFF78DFFF8BD2046FFF78E
:1016A00089FF6564F8BD266B2023012E7CD1C60618
:1016B0007AD5D60678D508684868009048694FF012
:1016C0000206400640D5E16B086840680004000C43
:1016D000E8D0A28D8242E5D9E085886920282DD006
:1016E00020680C3050E8001F21F4807140E800129F
:1016F000002AF5D12068143050E8001F21F00101C4
:1017000040E80012002AF5D12068143050E8001F8C
:1017100021F0400140E80012002AF5D184F842305F
:10172000256320680C3050E8001F21F0100140E8CC
:101730000012002AF5D1E06BFEF7AAFE6663A08DC9
:10174000E18D401A81B22AE0A08DE18D401A81B26C
:10175000E08D0028A6D00029A4D022680C3252E8DF
:10176000000F20F4907042E80007002FF5D12068A8
:10177000143050E8002F22F0010240E80027002F2B
:10178000F5D184F84230256320680C3050E8002FF2
:1017900022F0100240E80023002BF5D166632046BA
:1017A000FFF707FFF8BDFFE705062BD5150629D57E
:1017B00094F841002128F5D1A068B0F5805F01D1EF
:1017C0002069B0B1206A411C21622168007848601C
:1017D000E08C401E0004000CE084E3D12068C16866
:1017E00021F08001C1602068C16841F04001C16002
:1017F000D8E7206A0088C0F308004860206A801C8F
:101800002062E5E74006CDD55006CBD5CA68204614
:1018100022F04002CA6084F8413000F0EBF8C1E7E2
:101820006122000870B5040004D094F8410000253E
:1018300010B106E0012070BD84F84050204600F051
:1018400023F8242084F841002068C16821F4005165
:10185000C160204600F094FD2068016921F49041A8
:1018600001612068416921F02A0141612068C16855
:1018700041F40051C1606564202084F8410084F87F
:1018800042006563002070BD30B585B0002400942F
:101890000194029403940068184988422CD1184896
:1018A000816941F480418161816901F48041049141
:1018B000816941F0040181618069124D00F00400EA
:1018C00004904FF4007000900220019003200390D8
:1018D00069462846FEF74CFE2815CDE90004694606
:1018E00028460294FEF744FE002205212520FEF73B
:1018F000CDFF2520FEF7BCFF05B030BD003801400C
:10190000001002400008014090F84230202B01D026
:101910000220704721B11AB10023036300F08CBD8F
:101920000120704710B50068074988420AD107486E
:10193000007800F041FABDE8104001220349044854
:10194000FFF7E2BF10BD000000380140100000208A
:10195000240200202DE9F843044690F841009846FF
:1019600016460D46202802D00220BDE8F88385B136
:101970007EB100206064212084F84100FEF7F6FE6D
:10198000A6848146E684A0682027B0F5805F02D057
:1019900003E00120E9E7206910B12E4600250EE0A2
:1019A00000260CE08021204600F061FDA8B9C6B1F8
:1019B00016F8010B21684860E08C401EE084E08C42
:1019C0004B464FF00002CDF800800028EAD14FF0DE
:1019D0004001204600F04BFD40B184F841700320E7
:1019E000C3E735F8020BC0F30800E3E784F8417061
:1019F0000020BAE77047FEE72DE9F04186B00024E9
:101A000020480094019402940394816941F01001EC
:101A10008161816901F010010491816941F0040143
:101A20008161816901F004010491816941F008013B
:101A300081618069144F00F008004FF40055049054
:101A4000002229463846FEF78BFEDFF84080002250
:101A50003C214046FEF784FE0095022601250396B0
:101A6000CDE9015469463846FEF782FD3C20CDE9B8
:101A70000005CDE9024669464046FEF779FD06B00D
:101A8000BDE8F08100100240001001400008014054
:101A900010B58EB000240794089409940A940B940E
:101AA0001C2168460C94FEF728FC21484FF0804129
:101AB000C0E9001440F60F61C0E90241046184618D
:101AC000FFF7D8F908B172B6FEE74FF480500790DF
:101AD00007A91748FFF744FA08B172B6FEE71448A1
:101AE000FFF7B9FC08B172B6FEE70B940BA91048DA
:101AF0000C94FFF78BF908B172B6FEE76020CDE9D0
:101B0000000402940022694609480494FFF73DFC52
:101B100008B172B6FEE7042269460548FFF735FCB6
:101B200008B172B6FEE70248FFF70AFC0EB010BD1E
:101B30004C01002010B58CB024216846FEF7DDFB77
:101B400000241648099414490A94C0E900144FF679
:101B5000FF71C0E90241046184610320CDE9000402
:101B600001200C21CDE902040491CDE90540079440
:101B700069460A480894FFF761FA08B172B6FEE7B1
:101B8000099409A905480A94FFF740F9002801D0F3
:101B900072B6FEE70CB010BD0004004094010020B6
:101BA00010B58CB024216846FEF7A7FB0024164828
:101BB000099414490A94C0E900144FF6FF71C0E972
:101BC0000241046184610320CDE9000401200C215D
:101BD000CDE902040491CDE90540079469460A481D
:101BE0000894FFF72BFA08B172B6FEE7099409A929
:101BF00005480A94FFF70AF9002801D072B6FEE7FB
:101C00000CB010BD00080040DC010020FEE7000021
:101C100070B50E4D04000AD4012204212846FEF7B7
:101C20009FFD002208212846FEF79AFD0AE00022C7
:101C300004212846FEF794FD012208212846FEF7DC
:101C40008FFD644202480068446370BD0008014093
:101C50006C02002070B50E4D04000AD40122102140
:101C60002846FEF77DFD002220212846FEF778FD5C
:101C70000AE0002210212846FEF772FD01222021F1
:101C80002846FEF76DFD644202480068846370BD1B
:101C9000000801406C02002010B500210E48FFF73B
:101CA00009FC04210C48FFF705FC0C4C0022102114
:101CB0002046FEF755FD002220212046FEF750FD6C
:101CC000002204212046FEF74BFD20460022BDE8FD
:101CD00010400821FEF744BD6C02002000080140BE
:101CE000FEE7704770B50C4605464FF400510448B6
:101CF000FEF72EFD21462846BDE8704000F0D8B81A
:101D0000001001402DE9F04104460846C4E90312E1
:101D1000114602F0D7F901466061E06901F0FEFF6B
:101D2000E061A16A02F09CF901D2A06AE061A06AB8
:101D3000E16980F0004002F093F903D2A06A80F0DC
:101D40000040E061D4E90551284602F0BBF9A168E2
:101D500002F0BAF80646E169606802F0B5F8074695
:101D60002946206802F0B0F8394601F0D7FF314625
:101D700001F0D4FFA5612062616A02F071F901D21D
:101D8000606A2062606A216A80F0004002F068F9AF
:101D900002D3206ABDE8F081606A80F000402062D2
:101DA000F8E730B5DDE9034580E80E000021C161A8
:101DB0008161C0E9094530BD70B5254C002505217C
:101DC0002278062A41D2DFE802F003080C101C2911
:101DD000AA2801D10120207070BD552835D10220DC
:101DE000F9E7607020710320F5E7A07022792028C0
:101DF0000244227129D810B1E5700420EBE721706C
:101E000070BD144BE2789854521CD2B2E270237920
:101E100018442071A0788242F1D270BD21798842A5
:101E200013D162780B48A178102A02D0202A0CD155
:101E300006E0082909D141680068FFF753FF04E074
:101E4000022902D10078FFF74CFF257070BD000019
:101E500000000020D10000202DE9F041124C07467F
:101E60004FF0AA0020704FF0550060701500A77069
:101E70000E46E57004D01EB12A46201DFEF7F0F98B
:101E80007819C1B2002003E0325C401C1144C9B291
:101E9000A842F9DB6019642301716A1DBDE8F041B5
:101EA00001490248FFF756BDAC0000202402002083
:101EB0001CB50822CDE9000169461120FFF7CCFFCF
:101EC0001CBD000003480168486A002200B24A6253
:101ED00070470000DC01002003480168486A0022C6
:101EE00000B24A6270470000940100202DE9FC41D5
:101EF000FEF7BEFAFFF7D0FE0D4C0E4D0E4FCDE9AA
:101F000000544FF07C560023324639460B48FFF709
:101F100048FF0A48CDE900540023324639462C30A8
:101F2000FFF73FFFBDE8FC410548FEF7EDBF0000AD
:101F30000000FA440000E14500002041F4000020C8
:101F40004C01002010B54FF0E020006901F030FD99
:101F5000012803D0BDE8104001F05EBA10BD10B5F5
:101F600090B028216846FEF7C8F914210AA8FEF7A8
:101F7000C4F9022000900120049010200024059054
:101F800007946846FEF7B0FD08B172B6FEE70F2071
:101F9000CDE90A040C940D9400210AA80E94FEF7D2
:101FA000A7FC002801D072B6FEE710B010BD704744
:101FB0000148FFF72DB900006C0200200148FFF72F
:101FC00027B900004C0100200148FFF721B90000AB
:101FD00094010020F0B50268194B1A4C1A4D4FF0CD
:101FE0008047984205D0B84203D0A04201D0A84211
:101FF00003D122F070064A683243984205D0B842B5
:1020000003D0A04201D0A84203D122F44074CA6890
:1020100022434C6922F08002224302608A68C26235
:102020000A688262984201D1096901630121416114
:102030000169C90703D0016921F001010161F0BD07
:10204000002C0140000400400008004010B501F0E1
:102050001F030121046A99408C430462016A9A407B
:102060001143016210BD10B5846842EA032224F4D2
:102070007F440A432243826010BD826822F07002CE
:102080000A4342F0070181607047000030B5036ADF
:10209000026A22F0010202624268846924F0730538
:1020A0000C682C4323F002058B682B430A4DA84291
:1020B0000BD123F00805CB6822F440722B434D6905
:1020C00023F0040315438A692A4342608461496806
:1020D0004163036230BD0000002C014030B5026A4C
:1020E000036A23F010030362436884690D6824F4D3
:1020F000E64444EA05248D6822F0200242EA0512F3
:102100000B4DA8420ED1CD6822F0800242EA0512A2
:102110004D6923F4406343EA85038D6922F0400250
:1021200043EA85034360846149688163026230BD8C
:10213000002C014030B5036A026A22F48072026208
:102140004268C46923F4007324F073050C682C43BF
:102150008D6843EA05230C4DA8420ED1CD6823F4C7
:10216000006343EA05234D6922F4405242EA051216
:102170008D6923F4806342EA05124260C4614968B4
:10218000C163036230BD0000002C014030B5046A19
:10219000026A22F4805202624268C3690D6823F425
:1021A000E64343EA05238D6824F4005444EA0534E9
:1021B000064DA84204D14D6922F4804242EA8512BC
:1021C0004260C36149680164046230BD002C014073
:1021D00010B5036A046A24F001040462846924F0DF
:1021E000F00444EA021423F00A020A438461026202
:1021F00010BD10B5036A046A24F0100404628469F7
:1022000023F0A00324F4704444EA023243EA0111AB
:102210008261016210BD000000210D48FFF74AF9FC
:1022200004210B48FFF746F9094D0A4C40F6B83631
:10223000012210212046FEF793FA00222021204699
:10224000FEF78EFA28684663642000F0ABF9EFE7EA
:102250004C01002000080140012000F0A3F9FBE739
:1022600010B5406A0021C185C184FFF7A3F910BDF4
:1022700001680C3151E8002F22F4907241E80023EC
:10228000002BF5D10168143151E8002F22F0010232
:1022900041E80023002BF5D1016B012909D1016828
:1022A0000C3151E8002F22F0100241E80023002BEE
:1022B000F5D1202180F8421000210163704708B554
:1022C00090F84210222901D0022008BD82684FF404
:1022D00080539A4201D1016921B1816A9A421BD08F
:1022E0004AB10AE00268816A5268C2F308020A80B1
:1022F000816A891C08E0026972B10268526802F0C2
:102300007F020A70816A491C8162C18D491E0904DD
:10231000090CC18503D01BE002685268F1E701682F
:10232000CA6822F02002CA600168CA6822F480727A
:10233000CA6001684A6922F001024A61202180F8DE
:10234000421000214163026B012A03D0FFF7EAFA31
:10235000002008BD016301680C3151E8002F22F014
:10236000100241E80023002BF5D101680A68D2066B
:1023700002D50A6849680091818DFFF71AF9E7E7ED
:1023800070B5044600680169E26821F440511143C8
:1023900001612169A0680843616908432168CA682E
:1023A00041F20C639A430243CA6020684169A26902
:1023B00021F44071114341611E492068884202D1D5
:1023C000FEF75CFB01E0FEF749FB00EBC00101EB0F
:1023D0000012606864218000B2FBF0F3B3FBF1F3FC
:1023E0006FF018067343B2FBF0F5B2FBF0F605EBA5
:1023F0008305322303EB0515B5FBF1F5B6FBF1F6CA
:1024000005F0F00505EB0615B2FBF0F6B2FBF0F0B7
:10241000B0FBF1F06FF01802504306EB800003EBC5
:102420000010B0FBF1F0216800F00F002844886034
:1024300070BD00000038014081628285C2850021A4
:102440004164222180F84210016921B10168CA6803
:1024500042F48072CA6001684A6942F001024A612E
:102460000068C16841F02001C160002070472DE97B
:10247000F843984617460D460446089E24E0701C13
:1024800022D0FEF773F9A0EB0800B0421AD8CEB103
:102490002068C168490717D5802D15D0402D13D06D
:1024A0000168C94309070FD40168002540680090FE
:1024B0002046FFF7DDFE0820606484F840500120CC
:1024C000BDE8F8830320FBE72068006835EA0000D8
:1024D00004D00020B842D2D00020F1E70120F9E773
:1024E0000148FFF769B8000024020020FEE7090751
:1024F000090E002804DB00F1E02080F8001470478A
:1025000000F00F0000F1E02080F8141D704700007B
:10251000FEF732F9FFF723FDFFF76EFAFFF7B8FA7F
:102520001B481A490C2201604FF4E131416000213F
:102530008160C160C0E904128161C161FFF772F975
:1025400008B172B6FEE7FFF7F5FAFFF729FB10486E
:102550000021D838FEF7AEFF01220E490C48FFF7E4
:10256000D3F9FFF7C3FC00F02BF80B4A00210B480E
:1025700000F054F8074C084A0021606024320848F3
:1025800000F04CF8A06000F02DF8FEE700380140A4
:102590002402002010000020B04100085922000849
:1025A0001922000810B5EFF3058111B16FF0050491
:1025B00003E0002408B100F0F5FD204610BD000046
:1025C000EFF3058010B16FF0050070470448016813
:1025D00011B14FF0FF3070470121016000207047BA
:1025E0007C00002010B5EFF3058010B16FF00500FE
:1025F00010BD08480168012902D04FF0FF3010BD1E
:10260000054A002182F8141D0221016000F032FE0B
:10261000002010BD7C0000200BE000E02DE9FF4110
:102620004FEA01034FF00005EFF30581039549BB25
:1026300040B38027182100244AB3166806B13446F7
:1026400096691EB13146761E382E02D21679F607EB
:1026500003D0002004B0BDE8F081566906B1B70888
:10266000D2F808C0BCF1000F0DD0D5685C2D18D38E
:1026700012693AB136B18DE806103A46214601F0AA
:102680006CF903900DE0D6685EB912694AB903AAE5
:10269000CDE90012BAB2214601F032F9012800D08A
:1026A00003950398D6E700002DE9F041134C0F463F
:1026B0000546E6682068001D00F040FC681C07D154
:1026C00037B12168BDE8F0410D48091D00F086BC16
:1026D00020683544B5424560216805D2A06BBDE84D
:1026E000F041091D00F062BC606B091D00F05EFC4A
:1026F000A06A854200D2A562BDE8F0812C000020CE
:10270000A40700202DE9F041054600F073FC2D4C94
:10271000A068401CA06020682B4F10B1606930B3E6
:102720002BE02560A068012827D1002606EB860053
:1027300007EB800000F02CFC761C382EF6D32348E3
:1027400000F026FC2148143000F022FC1F482830FD
:1027500000F01EFC1D483C3000F01AFC1B485030B5
:1027600000F016FC194860631430A06305E020688F
:10277000E96AC06A884200D82560606A401C6062CD
:102780006864E86A2169884200D9206100EB800012
:1027900007EB8000291D00F021FC00F04BFC606974
:1027A00000280CD02068E96AC06A884207D208492C
:1027B0004FF080500860BFF34F8FBFF36F8FBDE8BD
:1027C000F08100002C000020F402002054070020BB
:1027D00004ED00E038B500F00DFC104C2068C8B9DD
:1027E0000F4800F0D5FB0E48143000F0D1FB0C4828
:1027F000E060143020610A4B0020F03B009003F1B0
:10280000500210210A2000F01DFE206010B105A129
:1028100000F092FCBDE8384000F00CBC68000020DD
:10282000A8080020546D72510000000030B4026C02
:102830000B46002A0BD0C1681144C1608468A142D4
:1028400001D30168C16030BC1846FDF709BD30BC3A
:1028500070472DE9F041856B174604460026026C4F
:1028600082B1C7B1E068FDF7FBFCE168206C091A92
:10287000E1602268914202D2A168081AE060022F4A
:1028800016D017E02068A8B9A06801F009F906463B
:102890000020A0600EE06068FDF7E2FC216C60683B
:1028A00008446060A168884204D32068606001E049
:1028B00005B16D1E6D1CA5633046BDE8F08110B5F5
:1028C000044690F8590058B101280CD002280FD0C6
:1028D000502080F31188BFF34F8FBFF36F8FFEE757
:1028E000206B00F0BBFB2046BDE8104000F0B6BBFB
:1028F00010BD000010484FF42051420706D0C01D03
:102900000D4920F00700411AC1F520510B4A002360
:102910000144C2E900030839183A21F007011160A7
:102920004B600B600B1AC0E9001393604FF000403E
:102930005360506170470000880F0020980000200D
:10294000144E154CA6F29C474FF08058DFF84C907F
:1029500012E000BF00F04EFBF068C568281D00F0D3
:10296000EDFAA068401EA0606068401E606000F044
:1029700061FB2846FFF7A3FF60680028EAD13868AA
:102980000128F9D9C9F80080BFF34F8FBFF36F8FCB
:10299000F2E70000900700202C00002004ED00E08A
:1029A00070B51D46049C51B1C4F80020C4E90F0164
:1029B0000121204600F07AFD84F84C5070BD24605F
:1029C000F4E700002DE9F05F8846DDE90B94154639
:1029D000834691009A460A9EA522206BFDF785FC4E
:1029E0006FF00301206B01EB8501084420F007071D
:1029F000780707D0502080F31188BFF34F8FBFF3C3
:102A00006F8FFEE70025B8F1000F0FD05FF00000D8
:102A1000221818F8001082F8341018F8001011B1BC
:102A2000401C1028F4D384F8435001E084F834505B
:102A3000382E00D33726E662C4E91365201D00F066
:102A4000B2FA04F1180000F0AEFA2461C6F13800C1
:102A50006462A061656584F858505246594638460C
:102A600000F05AFA2060B9F1000F01D0C9F8004017
:102A7000BDE8F09F30B5114900E011460A68824276
:102A8000FBD34B685C18844203D14068184448600B
:102A9000084643681C18944209D1084C183C246825
:102AA000A24209D052681A4442600A681268026061
:102AB000814200D0086030BD0460F9E79800002032
:102AC00070B5002441600B4D0061914206D8D11AC7
:102AD0008269914206D2011D286907E09A4203D219
:102AE000994201D3012403E0011DE86800F05EFA79
:102AF000204670BD6800002010B5044600F07AFA48
:102B0000A06B28B15FF0000400F094FA204610BDDD
:102B10000124F9E730B589B03C4D6EE004980028F7
:102B200006DADDE90601059A90470498002864DB7F
:102B3000069C606910B1201D00F000FA03A800F0A7
:102B4000D7F8024604980A2857D2DFE800F00505B6
:102B5000052D334A05052D3394F8280040F0010077
:102B600084F828000599A069059B01442046FFF7D9
:102B7000A7FF68B3216A2046884794F828004007D9
:102B80003BD5002000900598A16900234218194602
:102B9000204601F08FF8D8B9502080F31188BFF398
:102BA0004F8FBFF36F8FFEE714F8280F20F001005E
:102BB000207022E094F8280040F0010084F82800FA
:102BC0000598A06128B1811813462046FFF778FFC9
:102BD00013E0502080F31188BFF34F8FBFF36F8F46
:102BE000FEE794F82800810703D4204600F036FA67
:102BF00003E020F0010084F82800002204A92868DE
:102C000000F0A8FD002889D109B030BD680000207F
:102C10002DE9FC410F46054600F070FB01A800F0CD
:102C200067F80446019818B100F0B2FFBDE8FC81D6
:102C3000254EAFB130690068D0B30027291B3A4652
:102C4000306800F08DFA00F0A3FF0028EED11F4994
:102C50004FF080500860BFF34F8FBFF36F8FE5E7F1
:102C6000A542EBD800F094FFF0682746C068C4681E
:102C7000201D00F063F994F82800410719D5A069D8
:102C80002B4641193A462046FFF71AFFA8B100200B
:102C90000346014600902A46204601F00BF860B931
:102CA000502080F31188BFF34F8FBFF36F8FFEE783
:102CB00007E020F0010084F82800216A20468847B8
:102CC000B4E70127BAE700006800002004ED00E047
:102CD0000648416B096829B1416BC968C9684968F0
:102CE000816270474FF0FF31FAE700002C000020AE
:102CF00070B5054600F06AFE064E0446B068844290
:102D000003D200F009F8012000E0002028602046EE
:102D1000B46070BD68000020F8B5194D20E0C068AF
:102D2000C4680668201D00F009F9216A204688471A
:102D300094F82800400713D5A0693044B04206D962
:102D400024616060211DE86800F030F908E000208F
:102D50000346014600903246204600F0ABFF38B1F2
:102D6000E86801680029DAD12969C5E90310F8BDCE
:102D7000502080F31188BFF34F8FBFF36F8FFEE7B2
:102D80006800002008484068401C4FF0500080F365
:102D9000118804D0BFF34F8FBFF36F8FFEE7BFF3EF
:102DA0004F8FBFF36F8FFEE7A0000020074CE06855
:102DB000016841B1C0680021D0F80000FFF728FF8A
:102DC000FFF7A8FEF3E701210020F7E768000020E5
:102DD0002DE9F041044600F00DF994F9455004F155
:102DE000240609E0606A48B1304600F099FE08B157
:102DF00000F006FA6D1E6DB2002DF3DC4FF0FF36C9
:102E000084F8456000F016F900F0F4F894F94450A5
:102E100004F1100709E0206948B1384600F080FE4F
:102E200008B100F0EDF96D1E6DB2002DF3DC84F8F1
:102E30004460BDE8F04100F0FDB800002DE9F0412C
:102E40000546002700F05AFA324E306808B9FFF7FD
:102E500051FD706905424ED1C5B3083568070ED0E3
:102E600005F00700C0F108000544680707D05020AE
:102E700080F31188BFF34F8FBFF36F8FFEE72DB341
:102E80007068854237D82348183001460C6801E045
:102E900020460C466168A94202D221680029F7D178
:102EA00031688C4227D00768216801606068083764
:102EB000411B10290FD96019420708D0502080F318
:102EC0001188BFF34F8FBFF36F8FFEE713E04160B0
:102ED0006560FFF7CFFD61687068401A7060B26886
:102EE000904200D2B060706901430020C4E9000143
:102EF000F068401CF06000F04BFE780707D05020CF
:102F000080F31188BFF34F8FBFF36F8FFEE7384612
:102F1000BDE8F0818000002010B5031F4FF08074E1
:102F20001C601B1F21F001011960191F024B0B606F
:102F3000143940380A6010BD852D0008D0E90132EF
:102F400001699A60D0E901235A604A68824201D13E
:102F500082684A60002202610868401E08600868B2
:102F600070470000034B036003F15C0008608020A1
:102F700010607047D0080020044B036003F15C0030
:102F800008604FF480701060704700002C0B002028
:102F900000F108014FF0FF32C0E90112C160016188
:102FA00000210160704700210161704730B50B6856
:102FB0005A1C02D000F1080202E0026904E0224635
:102FC000546825689D42FAD953684B6099608A60BD
:102FD000516008610168491C016030BD42684A6067
:102FE00093688B6093685960916008610168491C1F
:102FF00001607047502080F31188BFF34F8FBFF3FB
:103000006F8F0A494868401C486001280CD1084865
:10301000006810F0FF0F07D0502080F31188BFF335
:103020004F8FBFF36F8FFEE770470000A0000020B6
:1030300004ED00E00849486828B1401E486001D10D
:1030400080F311887047502080F31188BFF34F8FB1
:10305000BFF36F8FFEE70000A000002070B50028CE
:103060002AD0164DA0F1080460686969084207D1AA
:10307000502080F31188BFF34F8FBFF36F8FFEE7AF
:1030800022683AB1502080F31188BFF34F8FBFF30D
:103090006F8FFEE78843606000F030F96068696810
:1030A000084468602046FFF7E5FC2869401C286159
:1030B000BDE8704000F06CBD70BD000080000020D5
:1030C0004FF0E02000210161816105494FF47A72DF
:1030D0000968B1FBF2F1491E4161072101617047A6
:1030E0002800002010B5FDF797F8114910280ED3DD
:1030F00000F1E02090F8F0030A78904207D25020C7
:1031000080F31188BFF34F8FBFF36F8FFEE709483D
:103110000068896800F4E060884207D9502080F395
:103120001188BFF34F8FBFF36F8FFEE710BD000014
:10313000A00000200CED00E010B5084B002200BFFD
:1031400053F832401CB1521C082AF9D310BD43F881
:10315000321003EBC201486010BD0000B402002031
:1031600070B515460E460446FFF744FF94F9441027
:103170000020491C01D184F8440094F94510491CF1
:1031800001D184F84500FFF755FFA06B28B92A4606
:10319000314604F1240000F051F82046BDE87040AB
:1031A000FFF716BE10B5020014D00F48006B38B1FF
:1031B000502080F31188BFF34F8FBFF36F8FFEE76E
:1031C00000F09CF800211046FFF76EFA00F0E0FCDA
:1031D000002807D105494FF080500860BFF34F8F9A
:1031E000BFF36F8F10BD00002C00002004ED00E045
:1031F00002490A6A0260C968416070472C000020D9
:1032000001490120C86170472C00002010B50C4610
:1032100050B1094909681831FFF7C8FE2046BDE8DA
:1032200010400121FFF740BA502080F31188BFF30E
:103230004F8FBFF36F8FFEE72C00002070B5144650
:103240000D4668B10A4909681831FFF7C7FE0CB18D
:103250004FF0FF3521462846BDE87040FFF724BAFD
:10326000502080F31188BFF34F8FBFF36F8FFEE7BD
:103270002C00002030B587B00024039405AA04A9CF
:1032800003A80494FFF76EFEDDE903010094CDE985
:103290000110002315A11748059A00F05EFB164D9A
:1032A0000028E8621FD000F0D5FC012809D0401C9E
:1032B00019D1502080F31188BFF34F8FBFF36F8F68
:1032C000FEE7502080F31188BFF34F8FBFF36F8F5D
:1032D0004FF0FF30A86201206861EC6007B0BDE8E4
:1032E000304000F045B807B030BD000049444C45BF
:1032F00000000000412900082C0000200248016B5A
:10330000491C0163704700002C000020164810B5CE
:10331000016B11B10121C16110BD0021C1610169C1
:10332000124A01E0B9B1491E01EB810352F8233082
:10333000002BF7D001EB810302EB830202F10804BA
:1033400053685B685360A34201D15B685360DA68DD
:103350000260016110BD502080F31188BFF34F8FD0
:10336000BFF36F8FFEE700002C000020F402002066
:103370001CB5264908780190FF20087008788DF860
:1033800000009DF800009DF8002000F0F000904241
:1033900007D0502080F31188BFF34F8FBFF36F8F9A
:1033A000FEE79DF800001A4C00F050002070072046
:1033B000A06005E09DF8002052008DF80020401E1E
:1033C0009DF800201206F5D4A060032807D05020F5
:1033D00080F31188BFF34F8FBFF36F8FFEE74FF479
:1033E0004070A060019808700A48016841F47001BB
:1033F0000160016841F070410160FFF761FE00204B
:103400006060FCF7D3FE00201CBD000000E400E07B
:10341000A000002020ED00E010B5502080F31188BE
:10342000BFF34F8FBFF36F8F00F0D6FA18B1044986
:103430004FF080500860002080F3118810BD00001C
:1034400004ED00E038B5049D18B153B1CAB181B1A3
:1034500020E0502080F31188BFF34F8FBFF36F8FB0
:10346000FEE7502080F31188BFF34F8FBFF36F8FBB
:10347000FEE7502080F31188BFF34F8FBFF36F8FAB
:10348000FEE739B1502080F31188BFF34F8FBFF3AF
:103490006F8FFEE750241C46012384F846302B46EC
:1034A0000094FFF77DFA204638BD000070B50D4648
:1034B000040025D0FFF79EFDD4E90F20216802FB10
:1034C0000011A1600021A163216861600A46D4E96E
:1034D0000F01401E00FB0121E16021464FF0FF304B
:1034E00001F8440F487004F110008DB1FFF750FD52
:1034F00004F12400FFF74CFDFFF79CFD012070BD97
:10350000502080F31188BFF34F8FBFF36F8FFEE71A
:1035100021690029F0D000F003FB0028ECD0044919
:103520004FF080500860BFF34F8FBFF36F8FE3E71A
:1035300004ED00E02DE9FF4782B01D468A464FF0BA
:103540000008040003D0BAF1000F08D011E05020A9
:1035500080F31188BFF34F8FBFF36F8FFEE7206CAE
:1035600038B1502080F31188BFF34F8FBFF36F8FB6
:10357000FEE7022D0AD1E06B012807D0502080F32E
:103580001188BFF34F8FBFF36F8FFEE700F010FA83
:103590003F4F4FF000094FF0805648B9049838B1BA
:1035A000502080F31188BFF34F8FBFF36F8FFEE77A
:1035B000FFF720FDA06BE16B884207D3022D05D0F9
:1035C0000498D0B1B8F1000F1AD01EE02A46514637
:1035D0002046FFF73EF9616A19B104F1240000F0BA
:1035E0009FFA20B13E60BFF34F8FBFF36F8FFFF79D
:1035F00021FD012006B0BDE8F087FFF71BFD22E0AA
:103600006846FFF7F5FD4FF00108FFF713FDFFF7E0
:1036100075FEFFF7EFFC94F94400401C01D184F8DB
:10362000449094F94500401C01D184F84590FFF77F
:1036300001FD04A9684600F029F930B12046FFF7E2
:10364000C7FB00F0A5FA0020D4E7FFF7D3FCA06B7E
:10365000E16B884213D1FFF7EDFC04F110000499EF
:10366000FFF7D4FD2046FFF7B3FB00F091FA0028E6
:103670009ED13E60BFF34F8FBFF36F8F98E7FFF788
:10368000D9FC2046FFF7A4FB00F082FA90E7000087
:1036900004ED00E02DE9F0471F46904689460400FE
:1036A00003D0B9F1000F08D011E0502080F3118849
:1036B000BFF34F8FBFF36F8FFEE7206C38B1502000
:1036C00080F31188BFF34F8FBFF36F8FFEE7022F98
:1036D0000AD1E06B012807D0502080F31188BFF396
:1036E0004F8FBFF36F8FFEE7FFF7FCFC5020EFF327
:1036F000118680F31188BFF34F8FBFF36F8FA06BDC
:10370000E16B884206D3022F04D0002086F3118893
:10371000BDE8F08794F94550A06B3A4649462046EB
:10372000FFF797F8681C04D06D1C84F84550012001
:10373000ECE7606A0028FAD004F1240000F0F0F908
:103740000028F4D0B8F1000FF1D00121C8F8001022
:10375000EDE700002DE9F747002683B08A46040014
:1037600003D0BAF1000F08D011E0502080F3118887
:10377000BFF34F8FBFF36F8FFEE7206C38B150203F
:1037800080F31188BFF34F8FBFF36F8FFEE700F018
:103790000FF9DFF8F4804FF000094FF0805748B977
:1037A000059838B1502080F31188BFF34F8FBFF3D5
:1037B0006F8FFEE7FFF71EFCA56BC5B15146204693
:1037C000FFF734F86D1EA563206950B104F11000B5
:1037D00000F0A6F928B1C8F80070BFF34F8FBFF30F
:1037E0006F8FFFF727FC012006B0BDE8F087059832
:1037F00008B11EB106E0FFF71DFC27E06846FFF7A1
:10380000F7FC0126FFF716FCFFF778FDFFF7F2FB48
:1038100094F94400401C01D184F8449094F9450087
:10382000401C01D184F84590FFF704FC05A96846C7
:1038300000F02CF8002820460AD0FFF7C9FA00F063
:10384000A7F92046FFF758F90028B3D00020CBE7AE
:10385000FFF752F990B104F124000599FFF7D6FC67
:103860002046FFF7B5FA00F093F90028A2D1C8F876
:103870000070BFF34F8FBFF36F8F9BE72046FFF7BA
:10388000A7FA00F085F995E704ED00E02DE9F04195
:103890000C46050011D0C4B1FFF7ACFB174BDA683A
:1038A0006E682068911B471C17D02F681B6A9F42C7
:1038B00019D0964217D8012410E0502080F31188C7
:1038C000BFF34F8FBFF36F8FFEE7502080F3118857
:1038D000BFF34F8FBFF36F8FFEE70024FFF7AAFB04
:1038E0002046BDE8F081884205D9401A206028466C
:1038F000FFF77EFCF1E700202060DCE72C000020D1
:103900002DE9FF5F8346DDE90E87994616468A4614
:103910009000FFF793FA05001CD05C20FFF78EFAA9
:10392000040014D00020256384F85900CDE902403A
:10393000CDE900874B46324651465846FFF742F8DC
:103940002046FEF7DFFE012004B0BDE8F09F2846C8
:10395000FFF784FB4FF0FF30F6E7F0B585B0DDE907
:103960000B640A9DA6B1DCB15C2700972663022692
:1039700084F85960002604AFCDE90246CDE900572E
:10398000FFF720F82046FEF7BDFE049805B0F0BD15
:10399000502080F31188BFF34F8FBFF36F8FFEE786
:1039A000502080F31188BFF34F8FBFF36F8FFEE776
:1039B0000548416919B1006B18B10020704701201A
:1039C00070470220704700002C0000200148C068AA
:1039D000704700002C0000202DE9F0412E4C0027FC
:1039E000206B28B1A069401CA0613846BDE8F08179
:1039F000E668761CE66013D1606B006838B1502031
:103A000080F31188BFF34F8FBFF36F8FFEE7606BBA
:103A1000A16B6163A063206A401C2062FFF758F924
:103A2000A06ADFF87880864209D3606B0068A0B195
:103A3000606BC068C5686868864211D2A062206861
:103A4000C06A00EB800158F82100012800D9012745
:103A5000E0690028C9D00127C7E74FF0FF30EDE744
:103A6000281DFFF76BFAA86A18B105F11800FFF7D7
:103A700065FAE86A2169884200D9206100EB80017B
:103A800008EB8100291DFFF7A9FAE86A2168C96AD5
:103A90008842CAD30127C8E72C000020F402002086
:103AA00070B504004FF0000133D01B4D28688442EC
:103AB00007D0502080F31188BFF34F8FBFF36F8F73
:103AC000FEE7206D38B1401E2065E36CE26A9A4241
:103AD0001FD040B11DE0502080F31188BFF34F8FFD
:103AE000BFF36F8FFEE7201DFFF728FAE06CE0625E
:103AF000C0F13800A061E06A2969884200D92861D4
:103B0000064900EB800001EB8000211DFFF766FAFB
:103B10000121084670BD00002C000020F4020020A6
:103B200070B5C068C46854B104F118000646FFF7C8
:103B300005FA144D286B50B13146134815E050205A
:103B400080F31188BFF34F8FBFF36F8FFEE7201D07
:103B5000FFF7F4F9E06A2969884200D928610B4926
:103B600000EB800001EB8000211DFFF737FAE06ACF
:103B70002968C96A884202D90120E86170BD002025
:103B800070BD00002C0000207C070020F402002003
:103B90002DE9F0472C4D00242746286B38B1FFF75C
:103BA00029FA286B401E2863286B40B146E050205C
:103BB00080F31188BFF34F8FBFF36F8FFEE7A968C3
:103BC000224E0120D1B3A6F5916980463068E0B15C
:103BD000F068C46804F11800FFF7B0F9201DFFF782
:103BE000ADF9E06A2969884200D9286100EB8001BB
:103BF00009EB8100211DFFF7F1F9E06A2968C96A24
:103C00008842E3D3C5F81C80E0E70CB1FFF760F809
:103C1000AC694CB14FEA0806FFF7DEFE00B1EE6179
:103C2000641EF9D10020A861E86938B1084901276C
:103C300038070860BFF34F8FBFF36F8FFFF7FAF9B4
:103C40003846BDE8F08700002C0000207C070020EB
:103C500004ED00E010B586B0FEF7BCFD114C206805
:103C6000B8B100200390049005AA04A903A8FFF7A7
:103C700083F9DDE9032102208DE8070000230AA172
:103C80000B48059AFFF769FE606010B106B001208D
:103C900010BD502080F31188BFF34F8FBFF36F8F9B
:103CA000FEE7000068000020546D72205376630028
:103CB000AD2D00082DE9FF411E46134602000A9D66
:103CC0004FF0000016D0144C2768002F0FD0CDE91C
:103CD00000130292062917DAFFF76AFE02284FF056
:103CE00000030FD0002269462068FFF723FC04B0D0
:103CF000BDE8F081502080F31188BFF34F8FBFF3F0
:103D00006F8FFEE72A46EEE70023324669463846C3
:103D1000FFF7C0FCEBE700006800002090EA010F0D
:103D200048BF81F0004100F1D481421A3CBF801AA3
:103D300089184FEAD0524FF07F4C1CEA410FA2EB9A
:103D4000D15318BF9CEA026F00F03B804FF0004C4B
:103D50004CEA00204CEA012121FA03FC10EB0C0C88
:103D60001ED202F1FF325FEA1C2040EBC25038BF86
:103D700070471CF07F0F4FEA400C18BFBCF17F4F1B
:103D800038BF7047C3F12003994008BF20F00100FD
:103D9000BCF17F4F38BF7047A0F1C04000F05BB965
:103DA0004FEA3C00000A40EBC25028BF1CF0FF0F56
:103DB0004FEA400CE6D018BFBCF17F4F38BF7047C8
:103DC000EAE79CEA026F05D010EA5C0F08BF00F03A
:103DD0000040704710B500F0F8F800BF64FBBE3E2D
:103DE000401058BFC0F14040491058BFC1F1404198
:103DF0008142EFF30080704741000B0ED3F19E0229
:103E000008D950F400034FEA032323FA02F048BF15
:103E10004042704710B500F0D8F800BF49922480A6
:103E2000002070476FF0004282EA200070470000D7
:103E300010F0004148BF4042B0FA80F310FA03F29C
:103E4000C3F19D030BD051EAC35101EB122053067D
:103E500038BF704700F1010008BF20F00100704733
:103E600050EA010C00F113801CF5000F58BFBCF59F
:103E7000000F01D48842704707D710F5000F58BFD4
:103E800011F5000F15D488427047894270471CF520
:103E9000000F04D5BCF5000FF7D5814270474FF0F5
:103EA000807C1CEB400F38BF1CEB410F01D28142DC
:103EB000704710B500F089F8922449004FF0005087
:103EC0004FF08051FFF78CBF4FF47F0C1CEAD012EB
:103ED0001EBF1CEAD11392EA0C0F93EA0C0F00F0FC
:103EE000478090EA010F48BF42F480724FF0004CC7
:103EF0004CEA00204CEA012102EB0302A0FB011373
:103F0000A2F50002002918BF43F001035B0028BF9F
:103F10004FEA330342EB22425FEA132C4CEBC250D0
:103F20002EBFBCEB436FB2F57C0F70474FEA036CBA
:103F3000BCF1004F08BF20F00100B2F57C0F38BF84
:103F400070470BD582F0FF0212F5803FC8BF704763
:103F500000F1C040D8BF00F00040704700F5000CF1
:103F60005FEA4C0C48BF7047B0F1C04000F073B836
:103F700090EA010F0CEAD11348BF42F48072624507
:103F800038BF634504D280EA010000F0004070476A
:103F900010B500F01AF800BF8900013E00F007B824
:103FA00000F009B85FEA410C5FEA1C6C08D080EAB7
:103FB000010000F050B85FEA400C5FEA1C6CF6D1DB
:103FC0004FF00040A0F5800070470EF1020E2EF079
:103FD000030E5EF8044B244204D44FEA4102B2F1CE
:103FE0007F4F11D84FEA4003B3F17F4F0CD80ED169
:103FF0004FEAD07CB2F17F4F0CEB4C0C0CF1020C71
:1040000008BF4CEBD17C04E04FF0080C01E04FEA14
:10401000D17C0CEB4C0324FA03F404F00704B4F154
:10402000040C06D20EEB840CBDE810404CF0010CE1
:104030006047DFE80CF0070802024FF00040A0F5EF
:10404000800010BD0846420018BFD2F1807288BFC0
:1040500000F0004010BDFF2141EAD050C00570477C
:1040600051EA000C00F113801CF5000F58BFBCF59D
:10407000000F01D48142704707D711F5000F58BFD8
:1040800010F5000F15D481427047894270471CF526
:10409000000F04D5BCF5000FF7D5884270474FF0EC
:1040A000807C1CEB410F38BF1CEB400F01D28842D3
:1040B000704780EA010081EA000180EA0100FFF711
:1040C000F8BE000090EA010F48BF81F000413FF5C3
:1040D0002CAE421A04D882F00042A0EB0200114438
:1040E0004FEAD0524FF07F4C1CEA410FA2EBD15364
:1040F00018BF9CEA026F4AD04FF0004C4CEA0020F7
:104100004CEA012121FA03FCB0EB0C0C0FD412F0A5
:10411000FE0F36D05FEA4C001DD5001240EBC250B6
:1041200038BF70471CF03F0F18BF70470BE0A2F17B
:1041300001025FEA1C2040EBC25038BF70471CF000
:104140007F0F18BF7047C3F12003994014BF401E72
:1041500020F00100704780084FEA122308BF704723
:10416000B0FA80FCA2EB0C02CCF1280C60FA0CF047
:1041700093EA122F04BF00EBC25070474FEAC3709E
:104180007047130A5FEADC1008BF7047F6E79CEA45
:10419000026F04D010EA5C0F08BF0020704710B512
:1041A000FFF713FF40DFF63E81F00040704700004C
:1041B0002442000800000000000000000000000091
:1041C00000000000000400001800000000000000D3
:1041D0000000000030420008000000000000000065
:1041E00000000000000000000004000028000000A3
:1041F00000000000000000000102020304050607A1
:1042000008090A0B0C0D0E0F101000000000000032
:104210000000010203040607080900000000010273
:10422000030400005461736B5F436F6D6D00000009
:104230005461636B5F4D6F746F7200005C420008E5
:1042400000000020AC00000028010008084300081E
:10425000AC0000203C3D00004401000800000000CC
:10426000000000000000000000000000000000004E
:10427000000000000000000001000000100000002D
:104280000000000000127A000000000000000000A2
:10429000000000000000000000000000000000001E
:1042A000000000000000000000000000000000000E
:1042B00000000000000000000000000000000000FE
:1042C00000000000000000000000000000000000EE
:1042D00000000000000000000000000000000000DE
:1042E00000000000000000000000000000000000CE
:1042F00000000000000000000000000000000000BE
:08430000AAAAAAAA000000000D
:04000005080000ED02
:00000001FF
